:020000040040BA
:10000000302B40208122400031234000312340002A
:100010003123400031234000312340000000000024
:10002000000000000000000000000000312340003C
:100030003123400000000000312340003123400004
:100040003123400031234000312340003123400060
:100050003123400031234000312340003123400050
:1000600031234000000000009D154000B515400000
:10007000CD15400031234000752B40003123400056
:10008000E5154000FD1540003123400031234000BC
:100090003123400031234000312340003123400010
:1000A000AD2B40003123400031234000312340007C
:1000B00031234000312340003123400031234000F0
:1000C00031234000312340003123400031234000E0
:1000D00000000000312340000000000031234000F8
:1000E00031234000312340003123400031234000C0
:1000F00031234000312340003123400031234000B0
:10010000312340003123400031234000312340009F
:10011000312340000000000000000000000000004B
:10012000312340003123400031234000312340007F
:100130003123400000000000312340003123400003
:1001400010B5054C237833B9044B13B10448AFF311
:1001500000800123237010BDAC0840200000000087
:10016000809F4000084B10B51BB108490848AFF309
:1001700000800848036803B910BD074B002BFBD073
:10018000BDE81040184700BF00000000B008402044
:10019000809F4000809F40000000000080B483B03A
:1001A00000AF78607B68072B25D801A252F823F0B6
:1001B000D1014000D7014000DD014000E3014000D3
:1001C000E7014000EB014000EF014000F301400077
:1001D0004FF4FA4310E04FF400430DE04FF40043B6
:1001E0000AE0084B08E0084B06E0084B04E0074B28
:1001F00002E0064B00E0002318460C37BD465DF8D0
:10020000047B704700093D0000127A00001BB70014
:1002100080B500AF0620054B9847024613469B0069
:1002200013449A001344184680BD00BF9D0140004E
:1002300080B500AF024B984703465B08184680BD67
:100240001102400080B582B000AF78607868034B3F
:10025000984700BF0837BD4680BD00BFD918400091
:1002600080B582B000AF78600B46FB707B68364A81
:1002700093420AD100BFFB7819467868334B984700
:100280000346002BF7D101235AE07B68304A9342A2
:100290000AD100BFFB78194678682C4B9847034673
:1002A000002BF7D101234BE07B682A4A93420AD105
:1002B00000BFFB7819467868244B98470346002B0B
:1002C000F7D101233CE07B68234A93420AD100BF67
:1002D000FB78194678681D4B98470346002BF7D1E9
:1002E00001232DE07B681D4A93420AD100BFFB78B1
:1002F000194678681A4B98470346002BF7D101231B
:100300001EE07B68174A93420AD100BFFB7819466A
:100310007868134B98470346002BF7D101230FE071
:100320007B68114A93420AD100BFFB78194678686E
:100330000B4B98470346002BF7D1012300E0002325
:1003400018460837BD4680BD00080E40E91E400033
:10035000000A0E40001A0E40001C0E4000400240F1
:10036000712140000080024000C0024080B584B08E
:1003700000AF786039600023FB607B68344A9342A9
:1003800007D100BF39687868324B98470346002B85
:10039000F8D17B68304A934207D100BF396878684A
:1003A0002C4B98470346002BF8D17B682B4A93428D
:1003B00007D100BF39687868264B98470346002B61
:1003C000F8D17B68264A934207D100BF3968786824
:1003D000204B98470346002BF8D17B68214A934273
:1003E0000DD100BF07F10C03194678681E4B9847E2
:1003F0000346002BF6D1FB68DAB23B681A707B68C3
:100400001A4A93420DD100BF07F10C0319467868D0
:10041000154B98470346002BF6D1FB68DAB23B68D0
:100420001A707B68124A93420DD100BF07F10C038A
:10043000194678680C4B98470346002BF6D1FB68A9
:10044000DAB23B681A7000BF1037BD4680BD00BFEE
:1004500000080E40191F4000000A0E40001A0E400E
:10046000001C0E4000400240A521400000800240D8
:1004700000C0024080B586B000AF0B20194B9847F2
:1004800001224FF0C0511848184B984702224FF0F4
:10049000C0511548154B98473B4600221A605A60D8
:1004A0009A60DA601A615A614FF416533B60C023B8
:1004B0007B604FF40063BB600D200A4B98470C4BE8
:1004C000984702463B4619460A480B4B984709484D
:1004D0000A4B984707480A4B984700BF1837BD4654
:1004E00080BD00BF4502400000100E405911400081
:1004F00031024000004002402D204000B120400069
:10050000E920400080B584B000AF78600023FB6034
:1005100010E0FB685A1CFA607A6813441B7819468D
:100520000A480B4B984700BF08480A4B98470346B8
:10053000002BF9D07A68FB6813441B78002BE8D1B4
:10054000FB6818461037BD4680BD00BF0040024022
:1005500061024000C11E400080B584B000AF7860E9
:100560000023FB607A68FB68134419460F48104B60
:10057000984709E0FB680133FB607A68FB68134425
:1005800019460A480A4B98477A68FB6813441B7857
:100590000A2BEFD1FB6801337A68134400221A70EA
:1005A000FB6818461037BD4680BD00BF00400240C2
:1005B0006D03400080B483B000AF78607B68072B88
:1005C00025D801A252F823F0E9054000EF054000CC
:1005D000F5054000FB054000FF0540000306400014
:1005E000070640000B0640004FF4FA4310E04FF4BA
:1005F00000430DE04FF400430AE0084B08E0084BCD
:1006000006E0084B04E0074B02E0064B00E0002345
:1006100018460C37BD465DF8047B704700093D0065
:1006200000127A00001BB70080B500AF0620054B12
:100630009847024613469B0013449A0013441846F9
:1006400080BD00BFB505400080B500AF024B9847A4
:100650000346184680BD00BF2906400080B584B01F
:1006600000AF1320084B9847084B984703467B6020
:1006700049F64043BB603B1D19460548054B98476A
:1006800000BF1037BD4680BDD91840004906400064
:1006900000800140DD1A400080B588B000AF3A60AC
:1006A0001A460346FB710B46BB7113467B71002350
:1006B000FB61FB793B76BB793B720123FB603B68B6
:1006C0003B617B797B6107F1080319460548064BBE
:1006D00098470346FB61FB695BB218462037BD466D
:1006E00080BD00BF008001406D1D400080B588B016
:1006F00000AF3A601A460346FB710B46BB711346C6
:100700007B710023FB61FB793B76BB793B72012354
:10071000FB603B683B617B797B6107F1080319460D
:1007200009480A4B98470346FB6107F1080319463D
:100730000548064B98470346FB61FB695BB21846C8
:100740002037BD4680BD00BF00800140851C4000B1
:1007500080B582B000AF78607B68072B31D801A2EA
:1007600052F823F0C1074000850740008D07400084
:10077000950740009D074000A5074000AD074000D9
:10078000B70740000020114B98471AE001200F4B9B
:10079000984716E000200E4B984712E010200C4BB3
:1007A00098470EE020200A4B98470AE03E2100209F
:1007B000084B984705E03E210120064B984700E092
:1007C00000BF00BF0837BD4680BD00BF1517400001
:1007D00081174000F117400080B582B000AF78600B
:1007E0007B68072B26D801A252F823F00D084000A1
:1007F0001108400011084000230840002308400071
:10080000230840002308400023084000012312E091
:100810000B4B98470346002B14BF01230023DBB288
:1008200009E0084B98470346002B14BF012300231F
:10083000DBB200E0002318460837BD4680BD00BF8C
:100840004D1740006918400080B483B000AF786055
:100850007B68072B25D801A252F823F07D084000C1
:1008600083084000890840008F084000930840003A
:10087000970840009B0840009F0840004FF4FA434F
:1008800010E04FF400430DE04FF400430AE0084B42
:1008900008E0084B06E0084B04E0074B02E0064B7B
:1008A00000E0002318460C37BD465DF8047B704716
:1008B00000093D0000127A00001BB70080B582B02D
:1008C00000AF0346FB7100BFFB791846054B984704
:1008D000034683F00103DBB2002BF5D100BF0837DC
:1008E000BD4680BDD907400080B586B000AFF86036
:1008F0007A603B600B46FB727B68002B07D13B683C
:10090000002B04D1FB684FF470021A6019E0FB7AE7
:1009100018460E4B984702467B68B2FBF3F37B61A7
:100920007B693A6802FB03F37B613B68013B1A0475
:10093000074B13407A68D2B2134343F47C52FB68EE
:100940001A6000BF1837BD4680BD00BF490840008F
:100950000000FF0780B582B000AF786039603B6867
:10096000002B08D1094B9847094A7B681B6843F064
:100970000053936205E0064A7B681B6843F48033AA
:10098000D36100BF0837BD4680BD00BF8518400059
:1009900000060E4080B582B000AF78607B68002B07
:1009A00003D1054B9847034602E0044B98470346A2
:1009B00018460837BD4680BDA1184000BD1840004C
:1009C00080B582B000AF0346FB71FB79033B042B7B
:1009D00008D8FB791846064B9847FB791846054B13
:1009E000984700E000BF00BF0837BD4680BD00BF8C
:1009F00051074000BD08400080B582B000AF78606C
:100A000000BF7868044B98470346002BF9D00023B9
:100A100018460837BD4680BD9509400080B500AF37
:100A20000620054B9847024613469B0013449A0044
:100A30001344184680BD00BF4908400080B500AF90
:100A4000024B98470346184680BD00BF1D0A400070
:100A500090B583B000AF1348134B98470620134B53
:100A60009847381D192301220621114CA0473B1D30
:100A7000002118460F4B984700200F4B9847022043
:100A80000E4B984700200E4B98470E4B98470E4B45
:100A9000984703461846044B984700BF0C37BD469D
:100AA00090BD00BF00A3E111A5244000C109400092
:100AB000E908400055094000F909400015164000BA
:100AC00091164000392340003D0A400080B586B0B1
:100AD00000AFF860B9607A6000237B61FB68002B8F
:100AE00012D04FF0FF3313E00B4B1B680B4A126818
:100AF000B96810469847BB680133BB607B69013316
:100B00007B617B68013B7B607B68002BECDC7B6955
:100B100018461837BD4680BD340A40203C0A4020A4
:100B200080B586B000AFF860B9607A6000237B6161
:100B3000FB68012B1ED0FB68022B1BD0FB68032B2C
:100B400018D04FF0FF3319E00E4B1A680E4B18689F
:100B5000BB68591CB9601B78194690470346002BA7
:100B600002DA4FF0FF3309E07B6901337B617B6878
:100B7000013B7B607B68002BE6D17B691846183708
:100B8000BD4680BD380A40203C0A402080B400AFFA
:100B9000BFF34F8FBFF36F8F094B0022C3F8502272
:100BA000074A074B5B6943F400335361BFF34F8F30
:100BB000BFF36F8F00BFBD465DF8047B704700BF79
:100BC00000ED00E080B48BB000AF264BD3F880304E
:100BD000FB61FB695B0BC3F30E037B62FB6903F0F4
:100BE00007030433BB61FB69DB08C3F309037B61C3
:100BF0007B69FB60FB68B3FA83F37B607B68DBB2E5
:100C000003F01F033B61BFF34F8F7B693B623A6A7E
:100C10003B6902FA03F319467A6ABB6902FA03F3E5
:100C20000B43BB600F4ABB68C2F860323B6A5A1E76
:100C30003A62002BEBD17B6A5A1E7A62002BE4D118
:100C4000BFF34F8F074A074B5B6943F4803353610F
:100C5000BFF34F8FBFF36F8F00BF2C37BD465DF8DA
:100C6000047B704700ED00E080B582B000AF786093
:100C70007868034B984700BF0837BD4680BD00BF6A
:100C8000D918400080B500AF0A20084B98470B20C8
:100C9000064B98470C20054B98471020034B98476C
:100CA0001120024B984700BF80BD00BF690C400077
:100CB00080B489B000AF78607B68FB61FB69BB6181
:100CC000BB695A09FB697B617B6903F01F03012142
:100CD00001FA03F33A61FB603B69BB60BA68064BFB
:100CE00013445B021A46FB68536000BF2437BD46BD
:100CF0005DF8047B704700BF0707200080B48DB00B
:100D000000AF786039607B68FB623B68BB62FB6A5E
:100D10007B627B6A5A09FB6A3B623B6A03F01F03F2
:100D2000012101FA03F3FA61BB61BB6A7B61FB69D4
:100D30003B613A69374B13445B02FB607B6903F00C
:100D40000803002B03D0FB68BA695A6602E0FB680F
:100D5000BA691A667B6903F01003002B04D0FB68A4
:100D6000BA69C3F8942003E0FB68BA69C3F890201D
:100D70007B6903F02003002B03D0FB68BA691A6576
:100D800002E0FB68BA695A657B6903F0C003002B77
:100D900003D0FB68BA691A6202E0FB68BA695A625A
:100DA0007B6903F08003002B04D0FB68BA69C3F8A9
:100DB000842003E0FB68BA69C3F880207B6903F0F4
:100DC0000103002B06D0FB681A6FBB691A43FB684E
:100DD0001A6706E0FB681A6FBB69DB431A40FB68C1
:100DE0001A677B6903F00203002B06D0FB685A6F79
:100DF000BB691A43FB685A6706E0FB685A6FBB6918
:100E0000DB431A40FB685A6700BF3437BD465DF8C4
:100E1000047B70470707200080B48DB000AF786076
:100E20000B46FB707B68FB62FB7887F82B30FB6A14
:100E30007B627B6A3B623B6A5B09FB61FA69174B29
:100E400013445B02BB6197F82B30012B09D1FB6A7D
:100E50007B617B6903F01F0301229A40BB691A6121
:100E60000CE097F82B30002B08D1FB6A3B613B6903
:100E700003F01F0301229A40BB695A61FB6AFB60C1
:100E8000FB6803F01F0301229A40BB69C3F8A0204E
:100E900000BF3437BD465DF8047B7047070720006C
:100EA00080B48BB000AF78600B46FB707B687B62D0
:100EB000FB7887F823307B6AFB61FB69BB61BB6908
:100EC0005B097B617A69104B13445B023B6197F8C5
:100ED0002330002B09D07B6AFB60FB6803F01F0303
:100EE00001229A403B691A6308E07B6ABB60BB68D9
:100EF00003F01F0301229A403B695A6300BF2C375D
:100F0000BD465DF8047B70470707200080B48DB0B4
:100F100000AF78600B46FB707B68FB62FB7887F85C
:100F20002B30FB6A7B627B6A5A09FB6A3B623B6A35
:100F300003F01F03012101FA03F3FA61BB6197F883
:100F40002B30FB75FB693B613A69234B13445B0211
:100F5000FB60FB7D013B032B2ED801A252F823F04E
:100F6000950F4000A70F4000710F4000830F400015
:100F7000FB68BA69C3F8C420FB68BA69C3F8D0201B
:100F80001FE0FB68BA69C3F8C420FB68BA69C3F8FC
:100F9000D42016E0FB68BA69C3F8C020FB68BA69C0
:100FA000C3F8D0200DE0FB68BA69C3F8C020FB6825
:100FB000BA69C3F8D42004E0FB68BA69C3F8B42066
:100FC00003E0FB68BA69C3F8B02000BF3437BD4600
:100FD0005DF8047B704700BF0707200080B400AFB6
:100FE000BFF34F8FBFF36F8F0C4A0C4BD3F8903287
:100FF00023F00103C2F89032084A084BD3F8943228
:1010000023F00103C2F89432BFF34F8FBFF36F8F09
:1010100000BFBD465DF8047B704700BF00ED00E0F7
:1010200080B500AF254B4FF400425A60244B9847DF
:10103000244B9847244B254A5A60234B244A5A6034
:10104000244B9847244B984701214820234B98472D
:1010500001214820224B984700210B201F4B984725
:1010600088210B201F4B984702210B201E4B9847CD
:10107000002115201B4B984715201C4B98471C4AF4
:101080001B4BD3F8143143F01003C2F81431032181
:101090002420144B98472420144B98470021032008
:1010A000104B98470320114B9847002104200D4B0B
:1010B000984704200D4B984700BF80BD50180E4044
:1010C0008D0B4000C50B4000000C0E400C08005A70
:1010D0000C07005ADD0F4000850C4000190E40003F
:1010E000A10E4000FD0C40000D0F4000B10C40006F
:1010F0000080084080B485B000AFF860B9607A60C5
:101100007B68002B03D0FB68BA685A6602E0FB6874
:10111000BA681A6600BF1437BD465DF8047B704795
:1011200080B483B000AF786039607B683A681A6336
:1011300000BF0C37BD465DF8047B704780B483B0B8
:1011400000AF786039607B683A685A6300BF0C373B
:10115000BD465DF8047B704780B487B000AFF8608F
:10116000B9607A60FB687A685A64BB68B3F1C05FA3
:101170004AD0B3F1C05F08D8B3F1006F16D0B3F115
:10118000805F2CD0002B69D064E0B3F1205F65D084
:10119000B3F1205F03D8B3F1005F4AD05AE0B3F156
:1011A000405F5BD0B3F1605F58D053E0FB681B6FCA
:1011B0007B61FB681A6F7B68D9437B690B401A40DF
:1011C000FB681A67FB685B6F7B61FB685A6F7B6823
:1011D000D9437B690B401A40FB685A673AE0FB68C9
:1011E0001B6F7B617A687B691A43FB681A67FB682F
:1011F0005B6F7B61FB685A6F7B68D9437B690B40EF
:101200001A40FB685A6725E0FB681B6F7B61FB682F
:101210001A6F7B68D9437B690B401A40FB681A67D9
:10122000FB685B6F7B617A687B691A43FB685A676E
:1012300010E0FB681B6F7B617A687B691A43FB686F
:101240001A67FB685B6F7B617A687B691A43FB688E
:101250005A6700BFFB687A685A6000E000BF1C371D
:10126000BD465DF8047B704780B584B000AFF86080
:10127000B9607A60B968F868194B98477B6803F0E1
:1012800001031A46B968F868164B98477B6803F063
:101290000A03002B03D0FB68BA681A6202E0FB68FD
:1012A000BA685A627B6803F00203002B04D0FB6823
:1012B000BA68C3F8802008E07B6803F00803002BBD
:1012C00003D0FB68BA68C3F88420FB68BA685A6127
:1012D000FB68BA681A6000BF1037BD4680BD00BF0A
:1012E000FD134000F510400080B584B000AFF860F9
:1012F000B9607A603B60B968F868124B9847BA6980
:10130000B968F868104B98473B68002B03D0FB681E
:10131000BA681A6502E0FB68BA685A657B68002BF8
:1013200003D0FB68BA681A6302E0FB68BA685A63C4
:10133000FB68BA681A61FB68BA681A6000BF1037A8
:10134000BD4680BDFD134000F510400080B483B061
:1013500000AF786039607B689A6B3B681340002B64
:1013600001D1002300E0012318460C37BD465DF88B
:10137000047B704780B485B000AFF860B9607A60D4
:101380007B6803F01003002B20D0FB68BA68C3F819
:10139000B0207B6803F02003002B04D0FB68BA6800
:1013A000C3F8D42003E0FB68BA68C3F8D0207B6898
:1013B00003F04003002B04D0FB68BA68C3F8C020D8
:1013C00008E0FB68BA68C3F8C42003E0FB68BA68A9
:1013D000C3F8B42000BF1437BD465DF8047B7047E6
:1013E00080B483B000AF786039607B683A681A6473
:1013F00000BF0C37BD465DF8047B704780B483B0F6
:1014000000AF786039607B683A685A6400BF0C3777
:10141000BD465DF8047B704780B483B000AF786050
:101420007B68DB6C18460C37BD465DF8047B704763
:1014300080B483B000AF78607B689B6C18460C3733
:10144000BD465DF8047B704780B584B000AF78601E
:1014500039607868264B9847F8607868254B98473C
:101460000246FB681340FB60FB68002B3CD0002366
:10147000BB6034E0204ABB681B0113441A683B6818
:101480009A4226D11C4ABB681B01134404331A68D4
:10149000FB681340002B1CD0174ABB681B01134488
:1014A0000C331B681449BA6812010A4410681249C7
:1014B000BA6812010A4404321268114698470E4A6B
:1014C000BB681B01134404331B68DB43FA681340F9
:1014D000FB60BB680133BB60BB68062B03D8FB68AD
:1014E000002BC7D100E000BF00BF1037BD4680BD54
:1014F0001914400031144000C808402080B586B05F
:1015000000AFF860B9607A603B60214B1B68062B26
:1015100001D9012338E00023FB7511E0FB7D1B019D
:101520001C4A13443B613B691A68BB689A4204D168
:101530003B695A687B689A4208D0FB7D0133FB7592
:10154000FA7D134B1B689A42E8D900E000BF3B6963
:10155000BA681A603B697A685A603B693A689A606F
:101560003B693A6ADA60FA7D094B1B6801339A429B
:1015700004D1074B1B680133054A13603A68796848
:10158000F868054B9847002318461837BD4680BDBC
:1015900038094020C80840207513400080B500AFCE
:1015A0000A210248024B984700BF80BD000E0E4042
:1015B0004914400080B500AF0B210248024B984708
:1015C00000BF80BD00100E404914400080B500AF40
:1015D0000C210248024B984700BF80BD00120E400C
:1015E0004914400080B500AF10210248024B9847D3
:1015F00000BF80BD00140E404914400080B500AF0C
:1016000011210248024B984700BF80BD00160E40D2
:101610004914400080B483B000AF78607B68013B20
:10162000032B1AD801A252F823F000BF3D16400048
:10163000431640004B1640005316400000237B60C9
:101640000EE04FF480737B600AE04FF440737B60E0
:1016500006E04FF400737B6002E000237B6000BF74
:101660000A490A4B1B6B23F440727B6813430B63DC
:1016700000BF064B9B6E03F00803002BF9D000BFA0
:101680000C37BD465DF8047B704700BF00060E4076
:1016900080B485B000AF78601D491D4B1B6B23F0F3
:1016A00070027B6813430B634FF48053FB6007E0C9
:1016B000FB68002B01D1012323E0FB68013BFB60A9
:1016C000134B9B6E03F00803002BF1D0104A104B14
:1016D0001B6B23F0030343F0020313634FF48053A7
:1016E000FB6007E0FB68002B01D1012309E0FB68E8
:1016F000013BFB60064B9B6E03F00803002BF1D00F
:10170000002318461437BD465DF8047B704700BFC0
:1017100000060E4080B483B000AF78607B68012B78
:1017200005D10749064B9A68064B13438B60044B5F
:10173000054A1A6000BF0C37BD465DF8047B704750
:1017400010180E40000010A5080000A580B400AFDE
:10175000094B5B6903F08003002B07D0074B9B6E9E
:1017600003F08003002B01D0012300E00023184682
:10177000BD465DF8047B704710180E4000060E4011
:1017800080B483B000AF78601549154B1A6A154BC9
:1017900013430B6200BF124B9B6E03F40033002B0C
:1017A000F9D00F490E4B1A6A0F4B13407A68134356
:1017B00043F45C130B6200BF094B9B6E03F40033D0
:1017C000002BF9D00649064B1A6A084B134043F424
:1017D0005C130B6200BF0C37BD465DF8047B70479D
:1017E00000060E40080037008FFFC8FFFFFFC8FE4D
:1017F00080B483B000AF786039607B68002B08D07C
:101800001349134B1B6A134A1A40134B13430B62C1
:1018100018E00F490E4B1A6A104B13403A68120237
:1018200092B21A430E4B13430B6200BF084B9B6EE0
:1018300003F00103002BF9D00549054B1A6A094B47
:1018400013430B6200BF0C37BD465DF8047B704745
:1018500000060E40FCFFC8FE02003701FCFFC8FF77
:10186000010037000000370180B400AF044B9B6ECD
:1018700003F480331846BD465DF8047B704700BF13
:1018800000060E4080B400AF044B4FF000529A6245
:1018900000BFBD465DF8047B704700BF00060E40E8
:1018A00080B400AF044B9B6E03F002031846BD46A4
:1018B0005DF8047B704700BF00060E4080B400AFA7
:1018C000044B9B6E03F040031846BD465DF8047B55
:1018D000704700BF00060E4080B483B000AF786050
:1018E0007B683F2B01D901232FE07B681F2B13D886
:1018F000194B9A6901217B6801FA03F31A4001210F
:101900007B6801FA03F39A421ED0134A01217B68D7
:1019100001FA03F3136117E07B68203B7B600E4BF9
:10192000D3F8082101217B6801FA03F31A40012151
:101930007B6801FA03F39A4206D0074A01217B68CB
:1019400001FA03F3C2F80031002318460C37BD46F4
:101950005DF8047B704700BF00060E4080B487B07E
:1019600000AFF860B9607A60FA68BB689B01134405
:101970007B617B6902221A607B694FF0FF329A62B9
:101980007B691B6A7B697A685A6000BF1C37BD4659
:101990005DF8047B704700BF80B483B000AF78600F
:1019A00039607A683B689B01134405221A6000BFC6
:1019B0000C37BD465DF8047B704700BF80B485B02E
:1019C00000AFF860B9607A60FA68BB689B011344A5
:1019D0001C337A681A6000BF1437BD465DF8047B7B
:1019E000704700BF80B487B000AFF860B9607A601C
:1019F000FA68BB689B0113447B617B697A685A6211
:101A000000BF1C37BD465DF8047B704780B48DB0C5
:101A100000AFF860B9607A603B6002233B61082345
:101A20007B612023BB618023FB61BB6BDB0B3B62D3
:101A30000023FB621AE0FB6A9B0007F130021344AB
:101A400053F8203CBA68B2FBF3F3BB62BB6A1B0CD1
:101A50007B62FA68BB6A9A4201D9002323E0FA68E4
:101A60007B6A9A4206D2FB6A0133FB62FB6A042B53
:101A7000E1D900E000BFFB6A042B01D9002312E08A
:101A80007B68002B08D0FB6A9B0007F130021344EF
:101A900053F8202C7B681A603B68002B02D03B680F
:101AA000FA6A1A60012318463437BD465DF8047B94
:101AB000704700BF80B483B000AF78607B680822B5
:101AC0001A607B6820221A607B6804221A6000BFBB
:101AD0000C37BD465DF8047B704700BF80B584B00D
:101AE00000AF786039600023FB607B684FF0FF3205
:101AF0009A627B681B6A78680B4B984778680B4B37
:101B000098473B6859683B681B681A467868084BD9
:101B100098470346012B01D10123FB60FB6818465F
:101B20001037BD4680BD00BF491E4000B51A4000B9
:101B3000351B400080B489B000AFF860B9607A60AE
:101B40000023FB61BB68344A934201D901235DE065
:101B5000BB68324A934237D97B68314AA2FB0323E0
:101B60009B0B033B7B61BA682E4B13449B007A6846
:101B7000B2FBF3F3033B3B6105E0FB690133FB611F
:101B80007B695B087B617B69FF2B09D9FB69062BAD
:101B9000F3D905E0FB690133FB613B695B083B61FD
:101BA0003B69FF2B02D9FB69062BF3D97B69DAB2BB
:101BB0003B691B029BB21A43FB691B0403F4E0233D
:101BC0001A43FB681A6120E0BB685B007A68B2FBCD
:101BD000F3F3033BBB6105E0FB690133FB61BB69C8
:101BE0005B08BB61BB69FF2B02D9FB69062BF3D9EC
:101BF000BB69DAB2BB691B029BB21A43FB691B04C7
:101C000003F4E0231A43FB681A61002318462437C3
:101C1000BD465DF8047B7047801A060000DC0500B5
:101C2000F11976050012FD3F80B485B000AF7860F1
:101C300039603B68002B01D100231DE07B681B78D5
:101C4000FB603B68012B09DDFB681B02FB607B68C6
:101C500001331B781A46FB681343FB603B68022B79
:101C600009DDFB681B02FB607B6802331B781A46A8
:101C7000FB681343FB60FB6818461437BD465DF8EC
:101C8000047B704780B586B000AF786039603B68F0
:101C9000DB687B613B689B683B6143F69823FB6094
:101CA0007B69002B01D1012359E07B6800225A6037
:101CB0003B681B7C1B0403F4FE023B685B681B0251
:101CC00003F44073134343F480527B685A607B688B
:101CD0000022DA603A683B685B6819461046224B7E
:101CE000984702467B68DA607B6801221A6029E027
:101CF0007B681B6ABB60BB6803F48073002B01D058
:101D000005232CE0FB685A1EFA60002B01D1092341
:101D100025E07B69012B02D17B6802221A60BB6837
:101D200003F00203002B00D10CE03B695A1C3A611E
:101D30007A68126BD2B21A707B69013B7B6143F601
:101D40009823FB607B69002BD2D100BF7B681B6AA4
:101D500003F00103002BF9D07B681B6A00231846AF
:101D60001837BD4680BD00BF291C400080B586B035
:101D700000AF786039603B68DB687B613B689B68DB
:101D80003B617B69002B01D1012356E07B68002277
:101D90005A603B681B7C1B0403F4FE023B685B68D3
:101DA0001B0203F440731A437B685A607B6800226D
:101DB000DA603A683B685B6819461046214B9847E1
:101DC00002467B68DA6019E07B681B6AFB60FB688F
:101DD00003F48073002B01D005232EE0FB6803F091
:101DE0000403002B00D109E03B695A1C3A611B78BF
:101DF0001A467B685A637B69013B7B617B69002BD8
:101E0000E2D17B681B6AFB60FB6803F48073002BE4
:101E100001D0052311E0FB6803F00403002B00D17F
:101E2000EFE700BF7B6802221A6000BF7B681B6A75
:101E300003F00103002BF9D0002318461837BD46E4
:101E400080BD00BF291C400080B483B000AF786023
:101E50007B6880221A607B681B6B00BF0C37BD4615
:101E60005DF8047B704700BF80B485B000AF786038
:101E700039600023FB607B68AC221A603B681A68FB
:101E80003B685B68B2FBF3F31B09FB60FB68002B4C
:101E900003D0FB68B3F5803F01D301230AE07B68E0
:101EA000FA681A623B689A687B685A607B685022BD
:101EB0001A60002318461437BD465DF8047B70474E
:101EC00080B483B000AF78607B685B6903F4007313
:101ED000002B14BF01230023DBB218460C37BD468C
:101EE0005DF8047B704700BF80B483B000AF7860BA
:101EF0000B46FB707B685B6903F00203002B01D18A
:101F0000012303E0FA787B68DA61002318460C3776
:101F1000BD465DF8047B704780B483B000AF786045
:101F200039607B685B6903F00103002B01D1012359
:101F300005E07B689B69DAB23B681A70002318469B
:101F40000C37BD465DF8047B704700BF80B489B094
:101F500000AFF860B9607A60BB681A017B689A428A
:101F600002D81023FB6101E00823FB617B68DA00E3
:101F7000FB69B96801FB03F35B081A44FB69B968A4
:101F800001FB03F3B2FBF3F3BB61BB69DB087B61CD
:101F9000BB6903F007033B617B69002B03D07B69BE
:101FA000B3F5803F01D301230FE0FB69082B05D176
:101FB000FB685B6843F40022FB685A603B691A04C3
:101FC0007B691A43FB681A62002318462437BD4612
:101FD0005DF8047B704700BF80B582B000AF7860C9
:101FE00078680D4B98477B6800225A607B68002216
:101FF0005A627B6800229A627868084B9847786832
:10200000074B98477868074B98477868064B98477E
:1020100000BF0837BD4680BDD9214000CD2040001B
:1020200005214000392140005521400080B584B091
:1020300000AFF860B9607A60F8681A4B98471A4B9D
:1020400000221A60BB68002B09D0BB681B687A6845
:102050001946F868154B98470346002B01D0012319
:102060001BE0BB685A68BB689B681A43BB681B6966
:102070001A43BB68DB681A430B4B1B6813430A4ABD
:102080001360094B1B68084A1360FB685A68064BCB
:102090001B681A43FB685A60002318461037BD4678
:1020A00080BD00BFD91F40003C0940204D1F4000AB
:1020B00080B483B000AF78607B6840221A6000BFB4
:1020C0000C37BD465DF8047B704700BF80B483B019
:1020D00000AF78607B6888221A6000BF0C37BD466D
:1020E0005DF8047B704700BF80B483B000AF7860B8
:1020F0007B6810221A6000BF0C37BD465DF8047B78
:10210000704700BF80B483B000AF78607B68242242
:102110001A6000BF0C37BD465DF8047B704700BFF6
:1021200080B483B000AF78607B685B6918460C3779
:10213000BD465DF8047B704780B483B000AF786023
:102140007B684FF480721A6000BF0C37BD465DF8A3
:10215000047B704780B483B000AF78607B684FF435
:1021600000221A6000BF0C37BD465DF8047B704743
:1021700080B483B000AF786039607B685B6903F03E
:102180000203002B01D1012305E03B68C3F30802E1
:102190007B68DA61002318460C37BD465DF8047B86
:1021A000704700BF80B483B000AF786039607B684F
:1021B0005B6903F00103002B01D1012306E07B687A
:1021C0009B69C3F308023B681A60002318460C376A
:1021D000BD465DF8047B704780B483B000AF786083
:1021E0007B68044AC3F8E42000BF0C37BD465DF8A5
:1021F000047B70470041535580B483B000AFEFF3C8
:1022000010837B607B68002B0CBF01230023DBB2B3
:102210003B6072B6BFF35F8F044B00221A703B68BD
:1022200018460C37BD465DF8047B7047000040201F
:1022300080B483B000AF78607B68002B14BF0123AB
:102240000023DBB218460C37BD465DF8047B7047AF
:1022500080B582B000AF78607868074B9847034636
:10226000002B05D0054B01221A70BFF35F8F62B6B9
:1022700000BF0837BD4680BD31224000000040202D
:1022800080B584B000AF1E4BFB601E4BBB60FA688C
:10229000BB689A420CD007E0BB681A1DBA60FA68A6
:1022A000111DF96012681A60BB68174A9342F3D394
:1022B000164BBB6004E0BB681A1DBA6000221A60AE
:1022C000BB68134A9342F6D3124BFB60124AFB6879
:1022D00023F07F039360114B98477860104A104BAE
:1022E0001B6843F470031360BFF34F8FBFF36F8F0E
:1022F00078680C4B98470C4B98470C4B9847FEE777
:10230000809F400000004020AC084020AC084020E6
:10231000300B40200000400000ED00E0F9214000BB
:1023200088ED00E0512240000D3E4000E1304000C9
:1023300080B400AFFEE700BF80B400AF524B1B6B10
:1023400003F00303012B14D0012B02D3022B38D04E
:102350007AE04E4B5B6903F08003002B04D04C4BBA
:102360004FF400421A606FE0494B4FF4FA421A6092
:102370006AE0454B1B6A03F08073002B03D0444B8B
:10238000444A1A6060E0424B434A1A603E4B1B6A63
:1023900003F07003102B04D0202B08D0002B0ED09C
:1023A0000EE03B4B1B685B00394A136008E0384B7A
:1023B0001A6813465B001344354A136000E000BFFF
:1023C00042E0314B1B6A03F08073002B03D0304B8B
:1023D000304A1A601CE02E4B2F4A1A602A4B1B6AA7
:1023E00003F07003102B04D0202B08D0002B0ED04C
:1023F0000EE0274B1B685B00254A136008E0244B66
:102400001A6813465B001344214A136000E000BFC2
:102410001D4B1B6B03F00303022B14D11A4B9A6A5A
:102420001E4B13401B0C0133194A126802FB03F3C5
:10243000174A1360144B9B6ADBB2154A1268B2FB51
:10244000F3F3134A136000BF0F4B1B6B03F07003D1
:10245000702B08D10E4B1B68114AA2FB03235B08AB
:102460000B4A13600AE0084B1B6B03F070031B0957
:10247000074A126822FA03F3054A136000BFBD46FB
:102480005DF8047B704700BF00060E4010180E4038
:1024900004004020001BB70000093D000000FF07BA
:1024A000ABAAAAAA80B483B000AF78607B68194A4F
:1024B000934204D8184B4FF080621A6023E07B6887
:1024C000164A934203D8144B154A1A601BE07B68E6
:1024D000144A934203D8104B134A1A6013E07B68E6
:1024E000124A934203D80C4B114A1A600BE07B68E6
:1024F000104A934204D8084B4FF004221A6002E0BD
:10250000054B0D4A1A6000BF0C37BD465DF8047BD1
:10251000704700BFFF2C3101000C0E40FF596202D2
:1025200000010004FF86930300020004FFB3C4040B
:1025300000030004FFE0F5050005000480B485B049
:1025400000AF7860104BFB60104B1B68002B02D172
:102550000E4B0F4A1A600D4B1B68BB60BA687B6854
:102560001A44FB689A4202DD4FF0FF3306E0074B46
:102570001A687B681344054A1360BB681846143711
:10258000BD465DF8047B7047FCFF452040094020B4
:10259000302D402080B483B000AF78604FF0FF331F
:1025A00018460C37BD465DF8047B704780B483B095
:1025B00000AF786039603B684FF400525A600023E6
:1025C00018460C37BD465DF8047B704780B483B075
:1025D00000AF7860012318460C37BD465DF8047BD8
:1025E000704700BF80B485B000AFF860B9607A6012
:1025F000002318461437BD465DF8047B704700BFC2
:1026000080B483B000AF0346FB71094997F90730E6
:102610005B09FA7902F01F02012000FA02F241F888
:10262000232000BF0C37BD465DF8047B704700BF18
:1026300000E100E080B483B000AF03463960FB7175
:1026400097F90730002B0BDA0D49FB7903F00F03E4
:10265000043B3A68D2B25201D2B20B441A7609E076
:10266000084997F907303A68D2B25201D2B20B4406
:1026700083F8002300BF0C37BD465DF8047B70472C
:1026800000ED00E000E100E080B483B000AF7860CE
:102690007B68072B25D801A252F823F0BD26400005
:1026A000C3264000C9264000CF264000D326400064
:1026B000D7264000DB264000DF2640004FF4FA43D7
:1026C00010E04FF400430DE04FF400430AE0084BE4
:1026D00008E0084B06E0084B04E0074B02E0064B1D
:1026E00000E0002318460C37BD465DF8047B7047B8
:1026F00000093D0000127A00001BB70080B500AF52
:102700000620054B9847024613469B0013449A0047
:102710001344184680BD00BF8926400080B500AF35
:10272000024B98470346184680BD00BFFD26400077
:1027300080B500AF024B984703465B08184680BD42
:10274000FD26400080B582B000AF78607868034B0A
:10275000984700BF0837BD4680BD00BFD91840006C
:1027600080B58CB000AF78603960494B984703461C
:102770007B623B681B68BB623B689B68FB623B6893
:102780001B68FB603B685B683B613B689B687B61E7
:102790003B68DB68BB610023FB617B683D4A934279
:1027A00008D107203C4B984707F124031946786865
:1027B0003A4B98477B683A4A934208D10820364BF7
:1027C000984707F1240319467868344B98477B688B
:1027D000344A934208D12C202F4B984707F1240309
:1027E000194678682D4B98477B682F4A934208D149
:1027F0002D20294B984707F1240319467868274B69
:1028000098477B68294A934211D10D20224B984763
:102810001F4B9847024607F10C0319467868244B72
:1028200098477868234B98477868234B98477B688C
:10283000224A934211D10E20174B9847144B9847C8
:10284000024607F10C0319467868194B98477868D7
:10285000184B98477868184B98477B68184A9342FA
:1028600011D10F200C4B9847094B9847024607F1AE
:102870000C03194678680E4B984778680D4B9847BB
:1028800078680D4B984700BF3037BD4680BD00BF0C
:102890003127400000080E4045274000691E4000D7
:1028A000000A0E40001A0E40001C0E40004002407C
:1028B0002D204000B1204000E9204000008002406F
:1028C00000C0024080B582B000AF78600B46FB705C
:1028D0007B68364A93420AD100BFFB781946786874
:1028E000334B98470346002BF7D101235AE07B680E
:1028F000304A93420AD100BFFB78194678682C4BC6
:1029000098470346002BF7D101234BE07B682A4A06
:1029100093420AD100BFFB7819467868244B984748
:102920000346002BF7D101233CE07B68234A934206
:102930000AD100BFFB78194678681D4B98470346BB
:10294000002BF7D101232DE07B681D4A93420AD169
:1029500000BFFB78194678681A4B98470346002B4E
:10296000F7D101231EE07B68174A93420AD100BFCA
:10297000FB7819467868134B98470346002BF7D12C
:1029800001230FE07B68114A93420AD100BFFB7814
:10299000194678680B4B98470346002BF7D1012363
:1029A00000E0002318460837BD4680BD00080E40F1
:1029B000E91E4000000A0E40001A0E40001C0E40A6
:1029C00000400240712140000080024000C00240EF
:1029D00080B584B000AF786039600023FB607B680D
:1029E000344A934207D100BF39687868324B984720
:1029F0000346002BF8D17B68304A934207D100BFD1
:102A0000396878682C4B98470346002BF8D17B68CF
:102A10002B4A934207D100BF39687868264B984704
:102A20000346002BF8D17B68264A934207D100BFAA
:102A300039687868204B98470346002BF8D17B68AB
:102A4000214A93420DD100BF07F10C031946786863
:102A50001E4B98470346002BF6D1FB68DAB23B6861
:102A60001A707B681A4A93420DD100BF07F10C031C
:102A700019467868154B98470346002BF6D1FB683A
:102A8000DAB23B681A707B68124A93420DD100BFDC
:102A900007F10C03194678680C4B98470346002B46
:102AA000F6D1FB68DAB23B681A7000BF1037BD463A
:102AB00080BD00BF00080E40191F4000000A0E40F4
:102AC000001A0E40001C0E4000400240A5214000AC
:102AD0000080024000C0024080B582B000AF786044
:102AE00039600F4A7B6813600E4B0F4A1A600F4B18
:102AF0000F4A1A60396878680E4B98470E4B1B686E
:102B00009B68002118460D4B98470B4B1B685B6870
:102B100000211846094B984700BF0837BD4680BDC5
:102B20003C0A4020380A4020C5284000340A402092
:102B3000D129400061274000380440205540400022
:102B400080B582B000AF786039604FF080510648A0
:102B5000064B98474FF480710548044B984700BFD7
:102B60000837BD4680BD00BF00140E40E92E40006E
:102B700000120E4080B582B000AF0848084B98475D
:102B800078607B6803F00103002B02D00548064BF8
:102B9000984700BF0837BD4680BD00BF0080024097
:102BA00021214000580A40205905400090B5B5B099
:102BB00000AF0123A94A3B216820A94CA047034646
:102BC000DAB2A84B1A700123A74A3C216820A44C12
:102BD000A0470346DAB2A34B1A700123A34A3D2152
:102BE00068209F4CA0470346DAB29E4B1A7001231F
:102BF0009F4A402168209A4CA0470346DAB2994B7D
:102C00001A7001239B4A3F216820954CA047034638
:102C1000DAB2944B1A700123974A40216820904CF5
:102C2000A0470346DAB28F4B1A708C4B1B78DBB28D
:102C30001B021AB28C4B1B78DBB21BB213431AB2C5
:102C40008E4B1A80894B1B78DBB21B021AB2884B61
:102C50001B78DBB21BB213431AB2894B1A80854B27
:102C60001B78DBB21B021AB2834B1B78DBB21BB2A0
:102C700013431AB2834B1A80804BB3F900301A46C3
:102C80007E4BB3F9003003FB02F307EE903AF8EE07
:102C9000E77A9FED7D7A67EE877A7C4BC3ED007A09
:102CA000774BB3F900301A46754BB3F9003003FB8C
:102CB00002F307EE903AF8EEE77A9FED737A67EE4B
:102CC000877A734BC3ED007A6E4BB3F900301A4626
:102CD0006C4BB3F9003003FB02F307EE903AF8EEC9
:102CE000E77A9FED697A67EE877A6A4BC3ED007ADF
:102CF000664B93ED007A664BD3ED007A37EE277A78
:102D0000644BD3ED007A77EE277A634B17EE900A87
:102D1000984703460C4618462146604B98470A469A
:102D200001465F4B0846114698470346C7F8C03036
:102D3000D7ED307AFDEEE77A17EE903AC7F8BC305F
:102D4000584A3B1D1146B8221846574B98472D2329
:102D5000C7F8CC3011E0D7F8CC30013B534A9B0088
:102D600013441A685149D7F8CC309B000B441A60C1
:102D7000D7F8CC30013BC7F8CC30D7F8CC30002B9B
:102D8000E9DCD7F8BC3007EE903AF8EEE77A474B2B
:102D9000C3ED007A0023C7F8C8301EE0D7F8C8306A
:102DA0009B0007F1D0021344CC3B93ED007A3F4ADD
:102DB000D7F8C8309B001344D3ED007A27EE277A6A
:102DC0003B4BD3ED007A77EE277A394BC3ED007A8F
:102DD000D7F8C8300133C7F8C830D7F8C8302D2B22
:102DE000DCDD334B1A682C4B10469847314C4FF0C2
:102DF0000002314BA04703460C46194622462F4B92
:102E00000846114698470346C7F8C430284B4FF090
:102E100000021A60D7F8C430294A934205DDD7F87A
:102E2000C4102848284B984706E000212748264B25
:102E300098470023C7F8C4304FF480712448254BCD
:102E40009847D7F8C42024492448254B984723485D
:102E5000244B984700BFD437BD4690BDBC0A4020E4
:102E6000ED064000550A4020560A4020540A4020F2
:102E7000400A40204C0A4020570A4020260B4020A0
:102E8000240B40204E0A402040DA7F38440A40207C
:102E9000500A4020280B40200937400005324000EE
:102EA000613D4000609C4000853E40004409402058
:102EB000FC094020B137400000408F40113D4000E8
:102EC00053E601004C9C40005D3E4000549C400095
:102ED00000120E40E92E4000589C4000C00A4020DD
:102EE000B54140000505400080B582B000AF786074
:102EF000396039687868094B98470346002B04D03D
:102F000039687868064B984703E039687868054B5C
:102F1000984700BF0837BD4680BD00BF4D13400035
:102F20003D1140002111400090B583B002AF0A204E
:102F3000104B984709224FF400610F480F4B9847F8
:102F40004FF400610C480E4B98470E4B00935023F2
:102F50004FF400620A2108480B4CA0470A200B4B93
:102F6000984701210A200A4B984700BF0437BD4605
:102F700090BD00BFD9184000000E0E4069124000FD
:102F8000E1134000412B4000FD14400001264000A9
:102F90003526400090B585B002AF78600C20074B15
:102FA00098477A680023009300234FF48071044807
:102FB000044CA04700BF0C37BD4690BDD918400057
:102FC00000120E40E912400090B587B002AF1A4BD4
:102FD0009847F8601820194B9847391D07F10802E7
:102FE000FB6800930B46F968FA20154CA0477B68F4
:102FF00043F480431A4601211248134B9847BB689B
:10300000FA68B2FBF3F3114AA2FB03231B091A4629
:1030100001210C480E4B984718200E4B9847102260
:10302000012108480C4B9847012106480B4B984753
:1030300000BF1437BD4690BD1D274000D918400081
:103040000D1A400000C000405D194000D34D6210D1
:10305000BD19400001264000E519400099194000C3
:1030600090B585B000AF0B20154B98470A20144B44
:10307000984710224FF000511248134B98474FF4D5
:1030800000124FF0006111480F4B9847104A104B47
:10309000D3F8143143F01003C2F814310D4B3C4601
:1030A0000FCB84E80F000E20054B98473B4619468E
:1030B00009480A4B984700BF1437BD4690BD00BF72
:1030C0004527400000100E4059114000000E0E40F0
:1030D00000800840189D400000800240D92A40002E
:1030E00098B500AF304B9847304B9847304B4FF472
:1030F00000425A602F4B984701202F4B98472F4B87
:1031000098472F4B98472F4A2F4B144607CB2060E8
:103110006160A2602B482D4B98472D482D4B984756
:103120002D4B984701232D4A752168202C4CA04730
:103130000346DAB22B4B1A702A4B1B78002B02D0B5
:103140002948244B9847254B1B78682B05D0234BE7
:103150001B78194625481F4B98471A4B01221A70B5
:103160000123184A6B216820214CA0470346DAB29C
:103170001C4B1A701B4B1B78002B02D01D48154BA3
:103180009847104B00221A7001230E4A1C21682018
:10319000174CA0470346DAB2124B1A70164B174A67
:1031A0001A60174B9847FEE7510A40002110400073
:1031B00050180E4061304000952F4000292F4000EC
:1031C00075044000C00A4020289D400005054000CD
:1031D000349D40005D3E40005D064000580A40209E
:1031E000ED064000550A40204C9D4000649D400083
:1031F000990640008C9D4000480A402040DA7F3804
:10320000C92F40002DE9F04F8BB004460D4600F069
:1032100055F8284B93F900A0BAF1FF3F06460F4638
:1032200012D022462B462046294600F05BFD8346FD
:1032300050B94FF000084FF0000942464B46204677
:10324000294600F027FD20B9304639460BB0BDE8CD
:10325000F08F194BCDF820B00122CDE90445CDE91E
:1032600002458DE80C00BAF1000F15D042464B46DE
:103270004046494600F0C6FBBAF1020FCDE906010F
:103280000CD100F0BDFD21230360089B63B9DDE98B
:1032900006010BB0BDE8F08FCDE90689684600F065
:1032A000CDF80028F1D1ECE700F0AAFD089B0360FF
:1032B000EDE700BF08004020A49D40002DE9F84341
:1032C0005D4EB6460E4076450C46054600F09580AC
:1032D00000290B46024673DD0F157ED0A7F2FF379B
:1032E000C3F31303F80743F4801364D403EBD271E0
:1032F00000260B447F105200B64616204FF40011F2
:103300000EEB01049C424FEAD2754FEA420203DC05
:103310001B1B04EB010E0E44013805EB43034FEA7F
:103320005101EDD1844620244FF0004109E020D026
:1033300003EBD275013C4FEA51012B444FEA4202A4
:1033400020D09E4501EB0C05F1DA002D05EB010CB8
:1033500009DBF0469542CEEB030300D9013B521B3B
:103360000844C646E4E7BCF1000FF2DB0EF10108A9
:10337000F0E7954217D8002D05EB010C47DB984686
:103380000023ECE7134310D14008731003F17F537F
:1033900003F50013F20703EB075948BF40F0004064
:1033A0004946BDE8F8837346C2E7411C33D000F0BC
:1033B00001031844E8E75B0003EBD273520095E782
:1033C00021F000460643ECD069BB0F46D30A153FF7
:1033D0005205002BFAD0DD0220D4002100E0014686
:1033E0005B00DC0201F10100F9D5C0F1200422FAF2
:1033F00004F423437F1A824070E702460B4600F034
:10340000D7F92A46234600F021F8BDE8F883BCF13D
:10341000000FABDAB3E701362046B6E720244FF0C1
:10342000FF310020E3E702460B4600F00DF80246AC
:103430000B4600F0E7FAB4E70000F07F0020704789
:1034400081F0004102E000BF83F0004330B54FEA55
:1034500041044FEA430594EA050F08BF90EA020FC2
:103460001FBF54EA000C55EA020C7FEA645C7FEA55
:10347000655C00F0E2804FEA5454D4EB5555B8BF78
:103480006D420CDD2C4480EA020281EA030382EAE9
:10349000000083EA010180EA020281EA0303362D7B
:1034A00088BF30BD11F0004F4FEA01314FF4801C4E
:1034B0004CEA113102D0404261EB410113F0004F60
:1034C0004FEA03334CEA133302D0524263EB430317
:1034D00094EA050F00F0A780A4F10104D5F1200EB5
:1034E0000DDB02FA0EFC22FA05F2801841F1000110
:1034F00003FA0EF2801843FA05F359410EE0A5F1E4
:1035000020050EF1200E012A03FA0EFC28BF4CF014
:10351000020C43FA05F3C01851EBE37101F00045CA
:1035200007D54FF0000EDCF1000C7EEB00006EEBD7
:103530000101B1F5801F1BD3B1F5001F0CD3490861
:103540005FEA30004FEA3C0C04F101044FEA4452B8
:1035500012F5800F80F09A80BCF1004F08BF5FEA3F
:10356000500C50F1000041EB045141EA050130BD1F
:103570005FEA4C0C404141EB010111F4801FA4F1C2
:103580000104E9D191F0000F04BF01460020B1FA17
:1035900081F308BF2033A3F10B03B3F120020CDA4F
:1035A0000C3208DD02F1140CC2F10C0201FA0CF02D
:1035B00021FA02F10CE002F11402D8BFC2F1200C92
:1035C00001FA02F120FA0CFCDCBF41EA0C01904048
:1035D000E41AA2BF01EB0451294330BD6FEA040491
:1035E0001F3C1CDA0C340EDC04F11404C4F120027C
:1035F00020FA04F001FA02F340EA030021FA04F38E
:1036000045EA030130BDC4F10C04C4F1200220FAE4
:1036100002F001FA04F340EA0300294630BD21FA22
:1036200004F0294630BD94F0000F83F4801306BFE8
:1036300081F480110134013D4EE77FEA645C18BFDC
:103640007FEA655C29D094EA050F08BF90EA020F73
:1036500005D054EA000C04BF1946104630BD91EA6B
:10366000030F1EBF0021002030BD5FEA545C05D16E
:103670004000494128BF41F0004130BD14F58004AD
:103680003CBF01F5801130BD01F0004545F0FE4121
:1036900041F470014FF0000030BD7FEA645C1ABF56
:1036A000194610467FEA655C1CBF0B46024650EA8D
:1036B000013406BF52EA033591EA030F41F40021B9
:1036C00030BD00BF90F0000F04BF0021704730B53F
:1036D0004FF4806404F132044FF000054FF0000114
:1036E00050E700BF90F0000F04BF0021704730B5D5
:1036F0004FF4806404F1320410F0004548BF4042AA
:103700004FF000013EE700BF42004FEAE2014FEAFE
:1037100031014FEA02701FBF12F07F4393F07F4FD9
:1037200081F06051704792F0000F14BF93F07F4F0B
:10373000704730B54FF4607401F0004521F000414E
:1037400020E700BF50EA010208BF704730B54FF0D4
:1037500000050AE050EA010208BF704730B511F0D9
:10376000004502D5404261EB41014FF4806404F111
:1037700032045FEA915C3FF4DCAE4FF003025FEA93
:10378000DC0C18BF03325FEADC0C18BF033202EB1B
:10379000DC02C2F1200300FA03FC20FA02F001FA75
:1037A00003FE40EA0E0021FA02F11444C1E600BF14
:1037B00070B54FF0FF0C4CF4E06C1CEA11541DBFC7
:1037C0001CEA135594EA0C0F95EA0C0F00F0DEF892
:1037D0002C4481EA030621EA4C5123EA4C5350EA77
:1037E000013518BF52EA033541F4801143F48013C8
:1037F00038D0A0FB02CE4FF00005E1FB02E506F059
:103800000042E0FB03E54FF00006E1FB03569CF0AD
:10381000000F18BF4EF0010EA4F1FF04B6F5007FB3
:1038200064F5407404D25FEA4E0E6D4146EB060625
:1038300042EAC62141EA55514FEAC52040EA5E50AE
:103840004FEACE2EB4F1FD0C88BFBCF5E06F1ED858
:10385000BEF1004F08BF5FEA500E50F1000041EB8F
:10386000045170BD06F0004646EA010140EA02003C
:1038700081EA0301B4EB5C04C2BFD4EB0C0541EA5E
:10388000045170BD41F480114FF0000E013C00F373
:10389000AB8014F1360FDEBF002001F0004170BD97
:1038A000C4F10004203C35DA0C341BDC04F11404B0
:1038B000C4F1200500FA05F320FA04F001FA05F23C
:1038C00040EA020001F0004221F0004110EBD37009
:1038D00021FA04F642EB06015EEA430E08BF20EA35
:1038E000D37070BDC4F10C04C4F1200500FA04F3D8
:1038F00020FA05F001FA04F240EA020001F000416A
:1039000010EBD37041F100015EEA430E08BF20EADC
:10391000D37070BDC4F1200500FA05F24EEA020E24
:1039200020FA04F301FA05F243EA020321FA04F053
:1039300001F0004121FA04F220EA020000EBD3700A
:103940005EEA430E08BF20EAD37070BD94F0000F0A
:103950000FD101F00046400041EB010111F4801F3E
:1039600008BF013CF7D041EA060195F0000F18BFEF
:10397000704703F00046520043EB030313F4801F2B
:1039800008BF013DF7D043EA0603704794EA0C0FE5
:103990000CEA135518BF95EA0C0F0CD050EA4106FB
:1039A00018BF52EA4306D1D181EA030101F0004178
:1039B0004FF0000070BD50EA410606BF10461946A0
:1039C00052EA430619D094EA0C0F02D150EA0136AC
:1039D00013D195EA0C0F05D152EA03361CBF1046ED
:1039E00019460AD181EA030101F0004141F0FE418C
:1039F00041F470014FF0000070BD41F0FE4141F410
:103A0000780170BD70B54FF0FF0C4CF4E06C1CEA0F
:103A100011541DBF1CEA135594EA0C0F95EA0C0FC4
:103A200000F0A7F8A4EB050481EA030E52EA03357F
:103A30004FEA013100F088804FEA03334FF08055A0
:103A400045EA131343EA12634FEA022245EA1115CD
:103A500045EA10654FEA00260EF000419D4208BF7E
:103A6000964244F1FD0404F5407402D25B084FEA2B
:103A70003202B61A65EB03055B084FEA32024FF4D7
:103A800080104FF4002CB6EB020E75EB030E22BF34
:103A9000B61A754640EA0C005B084FEA3202B6EBF4
:103AA000020E75EB030E22BFB61A754640EA5C00A3
:103AB0005B084FEA3202B6EB020E75EB030E22BF33
:103AC000B61A754640EA9C005B084FEA3202B6EB34
:103AD000020E75EB030E22BFB61A754640EADC00F3
:103AE00055EA060E18D04FEA051545EA16754FEA55
:103AF00006164FEAC30343EA52734FEAC2025FEA73
:103B00001C1CC0D111F4801F0BD141EA00014FF001
:103B100000004FF0004CB6E711F4801F04BF0143D2
:103B20000020B4F1FD0C88BFBCF5E06F3FF6AFAEEE
:103B3000B5EB030C04BFB6EB020C5FEA500C50F17E
:103B4000000041EB045170BD0EF0004E4EEA113101
:103B500014EB5C04C2BFD4EB0C0541EA045170BD08
:103B600041F480114FF0000E013C90E645EA060E4C
:103B70008DE60CEA135594EA0C0F08BF95EA0C0F7A
:103B80003FF43BAF94EA0C0F0AD150EA01347FF4C2
:103B900034AF95EA0C0F7FF425AF104619462CE799
:103BA00095EA0C0F06D152EA03353FF4FDAE1046FC
:103BB000194622E750EA410618BF52EA43067FF44D
:103BC000C5AE50EA41047FF40DAF52EA43057FF4DD
:103BD000EBAE12E74FF0FF3C06E000BF4FF0010CE8
:103BE00002E000BF4FF0010C4DF804CD4FEA410C4C
:103BF0007FEA6C5C4FEA430C18BF7FEA6C5C1BD019
:103C000001B050EA410C0CBF52EA430C91EA030F99
:103C100002BF90EA020F0020704710F1000F91EAF6
:103C2000030F58BF994208BF90422CBFD8176FEAC4
:103C3000E37040F0010070474FEA410C7FEA6C5C92
:103C400002D150EA013C07D14FEA430C7FEA6C5C99
:103C5000D6D152EA033CD3D05DF8040B704700BFC5
:103C60008446104662468C461946634600E000BF13
:103C700001B5FFF7B7FF002848BF10F1000F01BDE5
:103C80004DF808EDFFF7F4FF0CBF012000205DF8B0
:103C900008FB00BF4DF808EDFFF7EAFF34BF012035
:103CA00000205DF808FB00BF4DF808EDFFF7E0FFCE
:103CB00094BF012000205DF808FB00BF4DF808ED1F
:103CC000FFF7CEFF94BF012000205DF808FB00BF86
:103CD0004DF808EDFFF7C4FF34BF012000205DF868
:103CE00008FB00BF4FEA410C7FEA6C5C02D150EA4E
:103CF000013C0AD14FEA430C7FEA6C5C02D152EAE4
:103D0000033C02D14FF0000070474FF001007047B4
:103D10004FEA410212F5001215D211D56FF47873F3
:103D2000B3EB625212D94FEAC12343F0004343EA96
:103D3000505311F0004F23FA02F018BF4042704771
:103D40004FF00000704750EA013005D111F00040FB
:103D500008BF6FF0004070474FF00000704700BF91
:103D60004FEA4102B2F1E04324BFB3F5001CDCF19D
:103D7000FE5C0DD901F0004C4FEAC0024CEA5070D5
:103D8000B2F1004F40EB830008BF20F00100704704
:103D900011F0804F21D113F13872BCBF01F0004007
:103DA000704741F480114FEA5252C2F11802C2F139
:103DB000200C10FA0CF320FA02F018BF40F00100BA
:103DC0004FEAC1234FEAD32303FA0CFC40EA0C006C
:103DD00023FA02F34FEA4303CCE77FEA625307D1A9
:103DE00050EA01331EBF4FF0FE4040F440007047E0
:103DF00001F0004040F0FE4040F40000704700BF7A
:103E0000014B1868704700BF3804402070B50F4E52
:103E10000F4D761BB61018BF002405D0013455F89D
:103E2000043B9847A642F9D10A4E0B4D761B06F08B
:103E300091F8B61018BF002406D0013455F8043BA1
:103E40009847A642F9D170BD70BD00BF609F400089
:103E5000609F4000689F4000609F40000FB400B525
:103E6000074983B004AB086853F8042B81680193B9
:103E700001F050FD03B05DF804EB04B0704700BFE3
:103E800038044020844641EA000313F003036DD157
:103E9000403A41D351F8043B40F8043B51F8043B0D
:103EA00040F8043B51F8043B40F8043B51F8043B14
:103EB00040F8043B51F8043B40F8043B51F8043B04
:103EC00040F8043B51F8043B40F8043B51F8043BF4
:103ED00040F8043B51F8043B40F8043B51F8043BE4
:103EE00040F8043B51F8043B40F8043B51F8043BD4
:103EF00040F8043B51F8043B40F8043B51F8043BC4
:103F000040F8043B51F8043B40F8043B51F8043BB3
:103F100040F8043B403ABDD2303211D351F8043B53
:103F200040F8043B51F8043B40F8043B51F8043B93
:103F300040F8043B51F8043B40F8043B103AEDD202
:103F40000C3205D351F8043B40F8043B043AF9D253
:103F5000043208D0D2071CBF11F8013B00F8013B26
:103F600001D30B8803806046704700BF082A13D333
:103F70008B078DD010F003038AD0C3F10403D21A4B
:103F8000DB071CBF11F8013B00F8013B80D331F87F
:103F9000023B20F8023B7BE7043AD9D3013A11F8FF
:103FA000013B00F8013BF9D20B7803704B7843706A
:103FB0008B7883706046704770B4840746D0541E77
:103FC000002A41D0CDB2034602E0621EE4B314469B
:103FD00003F8015B9A07F8D1032C2ED9CDB245EA3C
:103FE00005250F2C45EA054519D903F1100226468F
:103FF000103E0F2E42F8105C42F80C5C42F8085C50
:1040000042F8045C02F11002F2D8A4F1100222F08E
:104010000F0204F00F041032032C13440DD91E4676
:104020002246043A032A46F8045BFAD8221F22F0FB
:1040300003020432134404F003042CB1C9B21C443B
:1040400003F8011BA342FBD170BC70471446034622
:10405000C2E700BF00290CBF022200224FF4806398
:1040600000F000B82DE9F043514C256883B00446B8
:104070000F4690461E4615B1AB6B002B79D0B8F1B8
:10408000020F04D0B8F1010F7FD8002E7DDB21464E
:10409000284603F04DFC216B41B104F140039942E5
:1040A00002D0284603F0A2FD00232363B4F90C30AC
:1040B0000022A26162601A0654D423F44A6323F0FA
:1040C0000303B8F1020FA38139D001AB6A46214640
:1040D000284604F02DF8A3891843A08126B327B3FE
:1040E000AB6B002B4DD0009BB4F90C0027609E42B7
:1040F0001CBF40F40060A081B8F1010F08BF40F080
:10410000010083B208BFA08103F0080080B22761DC
:10411000666118B313F001002FD000207642A6612B
:10412000A06003B0BDE8F083009E304604F074F850
:10413000074668B3A38943F08003A381D0E700203A
:1041400004F1430243F0020300250121A381A5608D
:1041500022602261616103B0BDE8F083A06003B01A
:10416000BDE8F0832169284603F040FDB4F90C3026
:10417000A3E7284603F070FC81E7A66003B0BDE822
:10418000F083284603F068FCADE74FF0FF30E2E72C
:10419000DDF80090B14506D0484604F03DF80746EA
:1041A00008B14E46C6E7B4F90C304FF0FF30C7E710
:1041B000380440200EB4F0B59CB021AB0F4953F841
:1041C000042B019305466FF00044086802954FF4F4
:1041D00002774FF6FF7602A90695ADF814700494A5
:1041E0000794ADF8166000F00BF8029B00221A70DD
:1041F0001CB0BDE8F04003B0704700BF3804402059
:104200002DE9F04FC1B00C46099115460E930A9066
:1042100003F08AFF03681793184605F0D1F8A389C5
:1042200016901E0603D52369002B01F01981002387
:104230001A4612932593249319930B93DFF864A4E1
:10424000149230AB239399461592A84698F8003003
:104250004446EBB1252B02D11AE0252B03D014F8EC
:10426000013F002BF9D1C8EB04058DB1249B259AA1
:10427000C9F8008001332A44072BC9F8045025925D
:10428000249300F3A68009F108090B9B2B440B93A0
:104290002378002B00F0A68000231A468DF86F309B
:1042A00019460C9307934FF0FF3B637804F1010824
:1042B0005D4608F10108A3F12000582800F225848A
:1042C000DFE810F08803230423049003230423046D
:1042D00023042304230423049703A50323045D007C
:1042E000E2002304FE0005010501050105010501A9
:1042F000050105010501050123042304230423040A
:10430000230423042304230423042304150181022A
:10431000230481022304230423042304C602230468
:104320002304CD0223042304230423042304F702DB
:104330002304230425032304230423042304230444
:104340002304230423042304230466037903810242
:10435000810281028103790323042304D10323040E
:10436000DB03A3006400EE032304F5032304AA0384
:1043700023042304BC030C980E9340420C90079B2B
:1043800043F00403079398F8003092E70E98AB4689
:10439000002104688DF86F10071D079830237822DC
:1043A0008B458DF870304FF000058DF8712040F08E
:1043B0000203C0F2C78320F0800343F00203079397
:1043C00054EA05030E9700F093830F461192B34809
:1043D000CEE223AA09990A9805F060F848B90DF1D0
:1043E000C00952E7259B23B10A98099923AA05F031
:1043F00055F8099B9B8913F0400F0B9B18BF4FF09A
:10440000FF33184641B0BDE8F08F1193AB46002A48
:1044100041F02382079A12F0200300F02E820E9FB3
:10442000073727F00703002703F10801BB450E916A
:10443000D3E900458DF86F70C0F2528722F08003F7
:10444000079354EA050300F0758330AEE20842EAB0
:104450004572E90804F007030D461446303354EA68
:10446000050206F8013DF1D1079AD10740F1848099
:10447000302B00F081803022731E06F8012C30AA08
:10448000D21A0D921E467AE098F800302A2B08F1D5
:10449000010401F0B181A3F13000092898BF002583
:1044A00001F2648114F8013B05EB850500EB45053D
:1044B000A3F130000928F5D945EAE575A046FAE6EA
:1044C000079B43F08003079398F80030F1E6A3F1CF
:1044D000300000231C4618F8013B04EB840400EB79
:1044E0004404A3F130000928F5D90C94E3E61193B4
:1044F000AB46002A41F0C981079B43F010030793A4
:10450000079B980640F130850E9F073727F0070775
:10451000D7E9002307F108010E9114461D46002A31
:1045200073F10003C0F25B85BBF1000F9DF86F7063
:10453000C0F23885079B23F08003079354EA0503F4
:1045400000F0DB81002D08BF0A2CC0F0DB8130AE0B
:10455000204629460A22002305F0ECF9303206F8FD
:10456000012D2046294600230A2205F0E3F90446DE
:104570000D4654EA0503EBD130AB9B1B0D930D9B0D
:104580005B45B8BF5B4608930023139317B1089BA4
:1045900001330893079B13F002030F9302D0089B8B
:1045A00002330893079B13F08403109340F0D782E3
:1045B0000C9B089A9D1A002D40F3D182102D25994D
:1045C000249A374F27DD189648461024B946099E8D
:1045D0002F460A9D04E0103F102F00F1080016DD61
:1045E00001322F4B24921031072A259180E81800C0
:1045F000F1DD23AA3146284604F050FF00287FF45D
:10460000F8AE103F102F2599249A30A8E8DC189EA8
:104610003D464F46814601326C18072A2594249264
:10462000C9F80070C9F8045000F328849DF86F7031
:1046300009F1080977B1249B013301340DF16F01B1
:104640000122072B2594249389E8060000F3A08318
:1046500009F108090F9B6BB1249B013302341CA99B
:104660000222072B2594249389E8060000F39C83FB
:1046700009F10809109B802B00F0D5820D9BC3EB3C
:104680000B07002F39DD074A249B0F92102F28DDDE
:1046900022464FF0100B0A9D099C0AE0E89D40005D
:1046A000089E4000B49D4000103F102F09F10809FA
:1046B00016DD01331032072B2592249389E8000C74
:1046C000F2DD23AA2146284604F0E8FE00287FF404
:1046D00090AE103F102F259A249B0DF1C009E8DC05
:1046E000144601330F9A24933C44072B259489E800
:1046F000840000F3418309F10809079BDA0500F102
:104700003082249B0D99C9F8006001330C44072BBB
:104710002594C9F80410249300F3188309F10809BB
:10472000079B59073FD50C9B089A9D1A002D3ADD2F
:10473000102D249BBC4F23DD22461026DDF828B027
:10474000099C04E0103D102D09F1080917DD013323
:10475000B54924931032072B259289E84200F1DDF8
:1047600023AA2146584604F099FE00287FF441AE62
:10477000103D102D259A249B0DF1C009E7DC14464D
:1047800001332C44072B25942493C9F80070C9F8F1
:10479000045008DD23AA09990A9804F07FFE002836
:1047A0007FF427AE259C0B9B0C9A08998A42ACBFDC
:1047B0009B185B180B93002C40F0D48200232493A9
:1047C0000DF1C00942E51193AB46002A41F0598032
:1047D0000E9F073727F0070303F108020E921A68AD
:1047E00014925B681593159B149D23F00044284692
:1047F00021464FF0FF328D4BFFF774FA002840F04E
:10480000C184284621464FF0FF32884BFFF74CFA0F
:10481000002840F0B7841498159900220023FFF770
:1048200039FA002840F04B879DF86F70804E814B1D
:10483000079921F080010791119903224FF0000B95
:1048400008924729D8BF1E460D92CDF84CB09DE680
:10485000079B43F00803079398F8003029E511936C
:10486000AB46002A41F00980079B43F010030793F1
:10487000079A12F020037FF4D2AD079911F01002CD
:1048800000F007850E988DF86F30BBF1000F0468BB
:1048900000F104074FF00005C0F221850A4622F01E
:1048A0008002079254EA05020E9700F043811F46EA
:1048B000CBE51193AB46002A40F0D787079B43F026
:1048C00010030793079A12F0200300F032830E9F23
:1048D000073727F00703002703F10801BB450E91B6
:1048E000D3E900458DF86F70C0F25C8322F080033D
:1048F000079354EA05037FF425AEBBF1000F00F0E7
:10490000FE80002440AE303406F8414D34E6119369
:10491000AB46002A40F0A587079B47489D0640F11B
:1049200097800E9F073727F00703D3E9004503F16F
:1049300008020E92079A12F0010700F0418254EA31
:10494000050300F0F5849DF844208DF871200027C0
:10495000079A8DF86F703023BB458DF8703042F0A8
:104960000203C0F2A98622F0800343F002030793FA
:1049700030AE230904F00F0143EA05732A091C46EF
:104980001546435C06F8013D54EA0503F1D1F3E511
:104990000E9911930A688DF8982000230A461F4645
:1049A0008DF86F30043201230893BB4613970E92A3
:1049B0000D9326AEEEE51193AB46002A3FF4A0AD71
:1049C0008DF86F109CE5079B43F04003079398F820
:1049D00000306EE498F8003000297FF46AAC0122C0
:1049E000202166E4079B43F00103079398F8003009
:1049F0005FE40E9C23680C9318460028234603F1BD
:104A00000403FFF6B8AC0E9398F8003051E498F820
:104A1000003001222B214CE41193AB46002A3FF4D5
:104A200051AF8DF86F104DE7089E4000FFFFEF7FFC
:104A3000C89D4000C49D4000D49D40001193AB46EA
:104A4000002A40F00387079B99489D063FF569AF10
:104A5000079BDC0640F15E840E9A1346043314680B
:104A60000E93002566E798F800306C2B00F0E18487
:104A7000079840F0100007901BE4002A40F0DB8606
:104A8000079B9B0640F12F840E9A0B991368CD1754
:104A90000846043229460E92C3E90001FFF7D6BB4F
:104AA000079B43F02003079398F8003001E40E9A27
:104AB0001193166800248DF86F40171D002E00F02A
:104AC000BD85002DC0F20F852A462146304603F0F1
:104AD00067FE002800F00486831B0D93A34623EA9B
:104AE000E3730E970893CDF84CB09DF86F704DE5C9
:104AF0006F481192BBF1000F40F073815F464FF099
:104B0000000BCDF834B030AE39E51193002A40F0F7
:104B1000B086119A002A3FF465AC002301211F469C
:104B200008918DF898208DF86F309B4613930D9166
:104B300026AE2FE5BBF1000F00F0DD850027002435
:104B4000002582E45A480793119254EA05030E9710
:104B50004FF000077FF40CAF0024002508E7259CE8
:104B600068E5119B652B40F3A980149815990022E4
:104B70000023FFF785F8002800F03581249B4D4A7B
:104B8000C9F80020013301340122072B2594249316
:104B9000C9F8042000F3E68309F108091D9B129A65
:104BA000934203DB079BDB077FF5BAAD249B169985
:104BB000179AC9F8002001330C44072B2594C9F833
:104BC0000410249300F33F8409F10809129B5D1E31
:104BD000002D7FF7A5AD384A249B0F92102D40F38E
:104BE000E68110260A9FDDF824B005E009F10809E6
:104BF000103D102D40F3DB8101331034072B259439
:104C00002493C9F800A0C9F80460EFDD23AA59462F
:104C1000384604F043FC00287FF4EBAB259C249B32
:104C20000DF1C009E4E70C9B089A9F1A002F7FF74B
:104C300025AD214A249B0F92102F2BDD4A46214699
:104C4000B946102537460A9C099E06E0A9F11009CD
:104C5000B9F1100F02F1080218DD01331031072BF2
:104C600025912493C2F800A05560EFDD23AA3146B8
:104C7000204604F013FC00287FF4BBABA9F1100917
:104C8000B9F1100F2599249B30AAE6DC3E460C466C
:104C90004F46914601330F9A24933C44072B2594A9
:104CA00089E8840000F3458209F10809E6E400BFC1
:104CB000E89D4000049E4000B49D4000129B249D4E
:104CC000012B40F30882013501340123072D25947F
:104CD0002495C9F80060C9F8043000F30D8209F189
:104CE0000809169A179BC9F8003001351444072D9E
:104CF00025942495C9F8042000F30E8209F10809CF
:104D00000023149815990022FEF7BAFF129B002881
:104D100040F0C380013B013501361C44072D24952A
:104D20002594C9F80060C9F8043000F3F58009F152
:104D30000809199AC9F80420013514441FAB072D3E
:104D400025942495C9F800307FF7E8AC23AA099987
:104D50000A9804F0A3FB00287FF44BAB259C0DF1CF
:104D6000C009DDE423AA09990A9804F097FB0028FA
:104D70003FF424ADFFF73DBB23AA09990A9804F03C
:104D80008DFB00287FF435AB259C0DF1C009B4E400
:104D900023AA09990A9804F081FB00287FF429AB23
:104DA000259C0DF1C00955E423AA09990A9804F03D
:104DB00075FB00287FF41DAB259C0DF1C00959E45B
:104DC000BBF1000F8DF86F70C0F2D88222F0800323
:104DD000079354EA05037FF4CBADBBF1000F3FF41A
:104DE0008DAE0027B8E61D9D002D40F3CA82139BAF
:104DF000129A9342A8BF1346002B1D460DDD249B3B
:104E0000C9F8006001332C44072B2594C9F80450DD
:104E1000249300F39C8309F10809139B002DA8BF7C
:104E20005B1B002B1D4640F3F680BA4A249B0F9271
:104E3000102D40F38A8222461027DDF828B0099C05
:104E400005E009F10809103D102D40F37D82013382
:104E50001032072B25922493C9F800A0C9F80470DA
:104E6000EFDD23AA2146584604F018FB00287FF402
:104E7000C0AA259A249B0DF1C009E4E723AA099949
:104E80000A9804F00BFB00287FF4B3AA9DF86F701A
:104E9000259C0DF1C009FFF7CDBB5E1E002E7FF7EC
:104EA00048AF9C4B0F93102E2CDDCDF8348010278B
:104EB000B046DDF828B0099E06E0A8F11008B8F168
:104EC000100F09F108091ADD01351034072D25945A
:104ED0002495C9F800A0C9F80470EEDD23AA314674
:104EE000584604F0DBFA00287FF483AAA8F11008E2
:104EF000B8F1100F259C249D0DF1C009E4DC464655
:104F0000DDF834800F9B01353444072D259424951A
:104F100089E848007FF70BAF23AA09990A9804F0A3
:104F2000BDFA00287FF465AA259C249D0DF1C009D7
:104F3000FFE6079911F0100200F008810E988DF835
:104F40006F30BBF1000F046800F104074FF000055B
:104F500026DB0A4622F08002079254EA05020E97E9
:104F60001F467FF4EFAAC8E4079BD9062AD4079B03
:104F70005A0627D50E99B1F900400431E5172246AB
:104F80002B460E91FFF7CBBA0E998DF86F30BBF11F
:104F9000000F0C6801F104074FF0000580F2478212
:104FA0000E971F4654EA05037FF4CCAAAAE4013306
:104FB0000F9A24932C44072B259489E824007FF72B
:104FC000ADABC3E60E9A146813460433E5172246C8
:104FD0000E93002A2B4673F10003BFF6A5AA644284
:104FE0004FF02D0765EB4505BBF1000F8DF86F7095
:104FF000FFF6A8AA079B23F080030793FFF7A2BA46
:1050000023AA09990A9804F049FA00287FF4F1A923
:10501000259C0DF1C009139A1D9B32441746129A24
:10502000934247DB079AD50744D412990E44F51BE7
:10503000CB1A9D42A8BF1D46002D2E460DDD249A99
:10504000C9F8007001322C44072A2594C9F804508D
:10505000249200F30B8309F10809002EACBF9D1BBD
:105060001D46002D7FF75CAB2A4A249B0F92102D22
:105070009DDD10260A9FDDF824B004E009F108093F
:10508000103D102D93DD01331034072B259424930C
:10509000C9F800A0C9F80460F0DD23AA59463846D3
:1050A00004F0FCF900287FF4A4A9259C249B0DF1B1
:1050B000C009E5E7249A16981799C9F8001001323B
:1050C0000444072A2594C9F80400249200F3A98215
:1050D00009F10809A9E7079BD8073FF5F4AD0135A9
:1050E00001340123072D25942495C9F80060C9F8DF
:1050F00004307FF71CAE0FE723AA09990A9804F041
:10510000CDF900287FF475A9259C249D0DF1C009D7
:10511000E7E500BFB49D400023AA09990A9804F06E
:10512000BDF900287FF465A9259C249D0DF1C009D7
:10513000E6E523AA09990A9804F0B0F900287FF45B
:1051400058A9259C0DF1C009FFF798BA079911F0ED
:1051500040033FF419AF0E988DF86F20BBF1000F9C
:10516000048800F104074FF00005C0F2B98121F076
:105170008003079354EA05030E9717467FF4E2A9CC
:10518000FFF7BBBB149C22462046159C23462146B4
:10519000FEF7A8FD002840F01783119BBBF1FF3FED
:1051A00023F020030D9300F07082472B00F09281D2
:1051B000079B43F480731093159B1F1E149B089349
:1051C000BBBF3B4603F1004700232D230F93119BE8
:1051D000662B00F05D82462B00F051810D9B089AF2
:1051E000452B21A81EA90CBF0BF101055D460490BB
:1051F00003911DA802213B460290019500910A9857
:1052000001F0C6FB119B672B064640F09082079B7E
:10521000DA0740F1AF82741908983946002200235A
:10522000FEF72EFD002840F09081219B9C4206D97C
:1052300030215A1C21921970219B9C42F9D89B1B4A
:1052400012930D9B472B00F07981119B652B40F346
:105250007D82119B662B1D9B139300F05B82139A3A
:1052600012998A42C0F23082079BD90700F18482EA
:1052700022EAE2730D92672211920F9A002A40F0FF
:1052800053810893109B079393469DF86F70FFF727
:105290007DB9079911F0400315D00E988DF86F2055
:1052A000BBF1000F048800F104074FF0000516DB86
:1052B00021F08003079354EA05030E973FF43AACBC
:1052C0001746FFF7C2B80E998DF86F30BBF1000F8B
:1052D0000C6801F104074FF0000580F2A5800E97DD
:1052E0000027FFF7B2B8079BDF060BD4079B5E06CB
:1052F00008D50E9A136804320E92BDF82C201A803D
:10530000FEF7A4BF0E9A136804320E920B9A1A602D
:10531000FEF79CBF0E9A079B13F0400F134603F154
:1053200004030CBF146814880E930025FFF702BB1A
:105330000027BB458DF86F70FFF60EAC079B23F07E
:1053400080030793FFF7D6BB144601330F9A2493CB
:105350002C44072B259489E824003FF751AE09F12E
:10536000080958E623AA09990A9804F097F8002832
:105370007FF43FA8259C0DF1C0090FE40E9FFFF7B5
:10538000E4BB249BB54AC9F8002001330134012253
:10539000072B25942493C9F8042000F38E8009F18B
:1053A00008092DB9129B1BB9079BDF077FF5B8A928
:1053B000249B1699179AC9F8002001330C44072B37
:1053C0002594C9F80410249300F3C28109F1080957
:1053D0006D42002D40F39B80A14A0F92102D40F3A7
:1053E000C38022461027DDF828B0099C05E009F1AA
:1053F0000809103D102D40F3B68001331032072B01
:1054000025922493C9F800A0C9F80470EFDD23AAFF
:105410002146584604F042F800287EF4EAAF259A67
:10542000249B0DF1C009E4E7079AFFF738BA079A01
:1054300090E5079B43F02003079308F1010898F8D3
:105440000030FEF736BF23AA09990A9804F026F81F
:1054500000287EF4CEAF259C0DF1C009FFF7B6BB46
:1054600040210A9802F0E0FE099A106010610028BD
:1054700000F0E581099A40235361FEF7D8BE21A8C8
:105480001EA9049003911DA803210290089ACDF84B
:1054900004B03B4600910A9801F07AFA5D46064650
:1054A000119B462B06EB05047FF4B6AE3378302B08
:1054B00000F07C811D9D2C44AEE623AA09990A9830
:1054C00003F0ECFF00287EF494AF1D9D259C0DF1A8
:1054D000C00966E7BBF1000F08BF4FF0010B67E69C
:1054E0000E9717465EE5304603F06AFFA346034673
:1054F0000D90FFF7F4BA23AA09990A9803F0CEFF9A
:1055000000287EF476AF259C249B0DF1C0091299EA
:10551000C9F8006001330C44072B25942493C9F883
:1055200004107FF7FBA811E42D270893109B079325
:105530008DF86F704FF0000BFFF729B81D9BDD1C35
:105540001EDB9B451CDB139389E6234677E623AAE3
:1055500009990A9803F0A2FF00287EF44AAF259C1F
:105560000DF1C00959E4144601330F9A24932C44D9
:10557000072B259489E82400BDDC09F10809C6E75A
:10558000119A023A1192013B002B9DF844201D9381
:10559000B8BF5B428DF87C20B4BF2D222B22092B93
:1055A0008DF87D2040F3F1800DF18B0004462D4AEB
:1055B00082FB0321DA17C2EBA10202EB8201A3EB0B
:1055C000410303F13001092A134604F8011DEEDC02
:1055D00021463033DAB201F8012D884240F23A8197
:1055E0000DF17E01234601E013F8012B01F8012B98
:1055F0009842F9D1431C1B1B0DF17E0213441FAAD4
:105600009B1A129A1993012A13440D9340F3EA80CE
:105610000D9B169A134400220D93139223EAE37311
:105620002BE623AA09990A9803F038FF00287EF494
:10563000E0AE1D9B259C0DF1C009F6E4062D2B461E
:1056400028BF06230D9323EAE373B3460E97139600
:1056500037460893044EFEF799BF00BF049E4000F2
:10566000B49D400067666666FC9D400023AA0999C8
:105670000A9803F013FF00287EF4BBAE1D9B129A1C
:10568000259CD31A0DF1C009E7E44FF0060B8FE516
:1056900021A81EA9049003911DA803210290089A35
:1056A000CDF804B03B4600910A9801F071F95D46CF
:1056B000064600EB0B04F9E60793FFF759B92D27CF
:1056C0008DF86F70FFF7B2B8169A129B1344139AB5
:1056D0000D93002A7EDD672223EAE3731192CCE565
:1056E00025EAE5730E9708930D95834613909DF870
:1056F0006F70FEF74BBF079BDB075F4605D540AEDB
:10570000302306F8413DFEF737BFCDF834B030AE58
:10571000FEF735BF002B7DDDBBF1000F3DD1079AB1
:10572000D4073AD41A460D9223EAE373A5E5119BF8
:10573000472B7FF470AD079BDB073FF5B1AE219B94
:105740009B1B12930D9B472B3FF4F8AE1D9B1AE752
:1057500023AA09990A9803F0A1FE00287EF449AE15
:105760001D9D259C249B0DF1C00931E6A046002516
:10577000FEF7A1BD219B62E5169A139B1344672295
:105780000D93119223EAE37377E5303330228DF8DD
:105790007F308DF87E2020AB31E7139B169A9D1841
:1057A00005EB0B030D9323EAE37366E5089839468E
:1057B00000220023FEF764FA00287FF47BAEC5F1D7
:1057C00001051D952C4427E5324E334B9DF86F7033
:1057D000FFF72EB8139B0D9AC3F101031A44134629
:1057E0000D9278E7079B13F001037FF411AF139339
:1057F0000D9B23EAE37340E50E9898F801300568A5
:105800000430002D0E90A046BEF653AD4FF0FF358C
:10581000FEF74FBDBBF1000F02D1079BD80707D59C
:10582000169B5D1C05EB0B030D9323EAE37324E544
:1058300001230D9321E58DF86F10FFF721B90A9A26
:105840000C2313604FF0FF30FEF7DCBD8DF86F10B6
:10585000FFF7F9B80DF17E03D1E68DF86F10FEF772
:10586000D9BD8DF86F10FFF757B88DF86F10FFF79F
:1058700025B88DF86F10FFF74CB98DF86F10FEF753
:10588000F3BF8DF86F10FEF7A3BF8DF86F10FEF712
:1058900033BE00BFD09D4000CC9D40004B6E2DE933
:1058A000F0479C0492462CD5936812683BB30F4690
:1058B000804602F1080919E96000B60817D0043DD6
:1058C000002401E0A64210D03A4655F8041F404695
:1058D00002F02CF9431C04F10104F3D10023CAF8AF
:1058E0000830CAF80430BDE8F087DAF80830A3EBD6
:1058F0008603CAF8083009F10809002BDBD1002023
:10590000ECE702F05BFA0023CAF80830CAF804306A
:10591000BDE8F0872DE9F04FABB01C4600919046F2
:105920000493059018B1836B002B00F0DE80009883
:10593000B0F90C108AB2950407D4436E41F40052BA
:1059400023F400538281436692B2110740F1B18083
:10595000009B1B69002B00F0AC8002F01A020A2A9F
:1059600000F0B58000230DF1680B02930F930E93A6
:10597000CDF834B0DA4698F800304446FBB1252B18
:1059800002D11CE0252B03D014F8013F002BF9D1E4
:10599000C8EB04059DB10E9B0F9ACAF80080013335
:1059A0002A44072BCAF804500F920E937BDD002A7D
:1059B00040F02885029B0E922B44DA46029323780E
:1059C000002B00F03E8400214FF000034FF0FF3227
:1059D0008DF82F3004F101086378019208460E46D5
:1059E0000C4608F10108A3F12002582A00F2938323
:1059F000DFE812F04603910391034E0391039103F4
:105A0000910391039103910389026702910380003E
:105A10006C029103C60159025902590259025902F6
:105A200059025902590259029103910391039103BA
:105A3000910391039103910391039103CB0191038E
:105A400091039103910391039103910391039103B6
:105A50009103140291039103910391039103EE02C8
:105A60009103910311039103910391039103910316
:105A70009103910391039103910334038A039103EA
:105A80009103910367038A03910391036C039103CC
:105A9000790395028500E90291039B029103BA0202
:105AA0009103910353030AF1080A029B2B440293CA
:105AB00085E70099059800F061FE002840F05885C0
:105AC000009B9A8902F01A020A2A7FF44BAF0099D0
:105AD000B1F90E30002BFFF645AF2346424605983C
